{
  "_format": "hh-sol-artifact-1",
  "contractName": "OrahProofRegistry",
  "sourceName": "contracts/OrahProofRegistry.sol",
  "abi": [
    {
      "inputs": [
        {
          "internalType": "address",
          "name": "_feeRecipient",
          "type": "address"
        }
      ],
      "stateMutability": "nonpayable",
      "type": "constructor"
    },
    {
      "inputs": [
        {
          "internalType": "address",
          "name": "owner",
          "type": "address"
        }
      ],
      "name": "OwnableInvalidOwner",
      "type": "error"
    },
    {
      "inputs": [
        {
          "internalType": "address",
          "name": "account",
          "type": "address"
        }
      ],
      "name": "OwnableUnauthorizedAccount",
      "type": "error"
    },
    {
      "inputs": [],
      "name": "ReentrancyGuardReentrantCall",
      "type": "error"
    },
    {
      "anonymous": false,
      "inputs": [
        {
          "indexed": false,
          "internalType": "address",
          "name": "oldRecipient",
          "type": "address"
        },
        {
          "indexed": false,
          "internalType": "address",
          "name": "newRecipient",
          "type": "address"
        }
      ],
      "name": "FeeRecipientUpdated",
      "type": "event"
    },
    {
      "anonymous": false,
      "inputs": [
        {
          "indexed": true,
          "internalType": "address",
          "name": "previousOwner",
          "type": "address"
        },
        {
          "indexed": true,
          "internalType": "address",
          "name": "newOwner",
          "type": "address"
        }
      ],
      "name": "OwnershipTransferred",
      "type": "event"
    },
    {
      "anonymous": false,
      "inputs": [
        {
          "indexed": true,
          "internalType": "string",
          "name": "batchId",
          "type": "string"
        },
        {
          "indexed": true,
          "internalType": "address",
          "name": "producer",
          "type": "address"
        },
        {
          "indexed": false,
          "internalType": "string",
          "name": "metadataCID",
          "type": "string"
        },
        {
          "indexed": false,
          "internalType": "string",
          "name": "selfDID",
          "type": "string"
        },
        {
          "indexed": false,
          "internalType": "uint256",
          "name": "timestamp",
          "type": "uint256"
        }
      ],
      "name": "ProofCreated",
      "type": "event"
    },
    {
      "anonymous": false,
      "inputs": [
        {
          "indexed": true,
          "internalType": "string",
          "name": "batchId",
          "type": "string"
        },
        {
          "indexed": false,
          "internalType": "string",
          "name": "proofHash",
          "type": "string"
        },
        {
          "indexed": false,
          "internalType": "uint256",
          "name": "timestamp",
          "type": "uint256"
        }
      ],
      "name": "ProofVerified",
      "type": "event"
    },
    {
      "anonymous": false,
      "inputs": [
        {
          "indexed": false,
          "internalType": "uint256",
          "name": "oldFee",
          "type": "uint256"
        },
        {
          "indexed": false,
          "internalType": "uint256",
          "name": "newFee",
          "type": "uint256"
        }
      ],
      "name": "VerificationFeeUpdated",
      "type": "event"
    },
    {
      "inputs": [
        {
          "internalType": "uint256",
          "name": "",
          "type": "uint256"
        }
      ],
      "name": "allBatchIds",
      "outputs": [
        {
          "internalType": "string",
          "name": "",
          "type": "string"
        }
      ],
      "stateMutability": "view",
      "type": "function"
    },
    {
      "inputs": [
        {
          "internalType": "string",
          "name": "_batchId",
          "type": "string"
        },
        {
          "internalType": "string",
          "name": "_metadataCID",
          "type": "string"
        },
        {
          "internalType": "string",
          "name": "_selfDID",
          "type": "string"
        }
      ],
      "name": "createProof",
      "outputs": [],
      "stateMutability": "payable",
      "type": "function"
    },
    {
      "inputs": [],
      "name": "feeRecipient",
      "outputs": [
        {
          "internalType": "address",
          "name": "",
          "type": "address"
        }
      ],
      "stateMutability": "view",
      "type": "function"
    },
    {
      "inputs": [
        {
          "internalType": "uint256",
          "name": "_index",
          "type": "uint256"
        }
      ],
      "name": "getBatchIdByIndex",
      "outputs": [
        {
          "internalType": "string",
          "name": "",
          "type": "string"
        }
      ],
      "stateMutability": "view",
      "type": "function"
    },
    {
      "inputs": [
        {
          "internalType": "address",
          "name": "_producer",
          "type": "address"
        }
      ],
      "name": "getProducerBatches",
      "outputs": [
        {
          "internalType": "string[]",
          "name": "",
          "type": "string[]"
        }
      ],
      "stateMutability": "view",
      "type": "function"
    },
    {
      "inputs": [
        {
          "internalType": "string",
          "name": "_batchId",
          "type": "string"
        }
      ],
      "name": "getProof",
      "outputs": [
        {
          "components": [
            {
              "internalType": "string",
              "name": "batchId",
              "type": "string"
            },
            {
              "internalType": "string",
              "name": "metadataCID",
              "type": "string"
            },
            {
              "internalType": "string",
              "name": "selfDID",
              "type": "string"
            },
            {
              "internalType": "address",
              "name": "producer",
              "type": "address"
            },
            {
              "internalType": "uint256",
              "name": "timestamp",
              "type": "uint256"
            },
            {
              "internalType": "bool",
              "name": "verified",
              "type": "bool"
            },
            {
              "internalType": "string",
              "name": "proofHash",
              "type": "string"
            },
            {
              "internalType": "uint256",
              "name": "verificationFee",
              "type": "uint256"
            }
          ],
          "internalType": "struct OrahProofRegistry.Proof",
          "name": "",
          "type": "tuple"
        }
      ],
      "stateMutability": "view",
      "type": "function"
    },
    {
      "inputs": [],
      "name": "getTotalProofs",
      "outputs": [
        {
          "internalType": "uint256",
          "name": "",
          "type": "uint256"
        }
      ],
      "stateMutability": "view",
      "type": "function"
    },
    {
      "inputs": [
        {
          "internalType": "string",
          "name": "_batchId",
          "type": "string"
        }
      ],
      "name": "isProofVerified",
      "outputs": [
        {
          "internalType": "bool",
          "name": "",
          "type": "bool"
        }
      ],
      "stateMutability": "view",
      "type": "function"
    },
    {
      "inputs": [],
      "name": "owner",
      "outputs": [
        {
          "internalType": "address",
          "name": "",
          "type": "address"
        }
      ],
      "stateMutability": "view",
      "type": "function"
    },
    {
      "inputs": [
        {
          "internalType": "address",
          "name": "",
          "type": "address"
        },
        {
          "internalType": "uint256",
          "name": "",
          "type": "uint256"
        }
      ],
      "name": "producerBatches",
      "outputs": [
        {
          "internalType": "string",
          "name": "",
          "type": "string"
        }
      ],
      "stateMutability": "view",
      "type": "function"
    },
    {
      "inputs": [
        {
          "internalType": "string",
          "name": "",
          "type": "string"
        }
      ],
      "name": "proofExists",
      "outputs": [
        {
          "internalType": "bool",
          "name": "",
          "type": "bool"
        }
      ],
      "stateMutability": "view",
      "type": "function"
    },
    {
      "inputs": [
        {
          "internalType": "string",
          "name": "",
          "type": "string"
        }
      ],
      "name": "proofs",
      "outputs": [
        {
          "internalType": "string",
          "name": "batchId",
          "type": "string"
        },
        {
          "internalType": "string",
          "name": "metadataCID",
          "type": "string"
        },
        {
          "internalType": "string",
          "name": "selfDID",
          "type": "string"
        },
        {
          "internalType": "address",
          "name": "producer",
          "type": "address"
        },
        {
          "internalType": "uint256",
          "name": "timestamp",
          "type": "uint256"
        },
        {
          "internalType": "bool",
          "name": "verified",
          "type": "bool"
        },
        {
          "internalType": "string",
          "name": "proofHash",
          "type": "string"
        },
        {
          "internalType": "uint256",
          "name": "verificationFee",
          "type": "uint256"
        }
      ],
      "stateMutability": "view",
      "type": "function"
    },
    {
      "inputs": [],
      "name": "renounceOwnership",
      "outputs": [],
      "stateMutability": "nonpayable",
      "type": "function"
    },
    {
      "inputs": [
        {
          "internalType": "address",
          "name": "newOwner",
          "type": "address"
        }
      ],
      "name": "transferOwnership",
      "outputs": [],
      "stateMutability": "nonpayable",
      "type": "function"
    },
    {
      "inputs": [
        {
          "internalType": "address",
          "name": "_newRecipient",
          "type": "address"
        }
      ],
      "name": "updateFeeRecipient",
      "outputs": [],
      "stateMutability": "nonpayable",
      "type": "function"
    },
    {
      "inputs": [
        {
          "internalType": "uint256",
          "name": "_newFee",
          "type": "uint256"
        }
      ],
      "name": "updateVerificationFee",
      "outputs": [],
      "stateMutability": "nonpayable",
      "type": "function"
    },
    {
      "inputs": [],
      "name": "verificationFee",
      "outputs": [
        {
          "internalType": "uint256",
          "name": "",
          "type": "uint256"
        }
      ],
      "stateMutability": "view",
      "type": "function"
    },
    {
      "inputs": [
        {
          "internalType": "string",
          "name": "_batchId",
          "type": "string"
        },
        {
          "internalType": "string",
          "name": "_proofHash",
          "type": "string"
        }
      ],
      "name": "verifyProof",
      "outputs": [],
      "stateMutability": "nonpayable",
      "type": "function"
    }
  ],
  "bytecode": "0x6080604052670de0b6b3a764000060065534801561001c57600080fd5b50604051611cc9380380611cc983398101604081905261003b9161013b565b338061006257604051631e4fbdf760e01b8152600060048201526024015b60405180910390fd5b61006b816100eb565b50600180556001600160a01b0381166100c65760405162461bcd60e51b815260206004820152601560248201527f496e76616c69642066656520726563697069656e7400000000000000000000006044820152606401610059565b600780546001600160a01b0319166001600160a01b039290921691909117905561016b565b600080546001600160a01b038381166001600160a01b0319831681178455604051919092169283917f8be0079c531659141344cd1fd0a4f28419497f9722a3daafe3b4186f6b6457e09190a35050565b60006020828403121561014d57600080fd5b81516001600160a01b038116811461016457600080fd5b9392505050565b611b4f8061017a6000396000f3fe6080604052600436106101095760003560e01c80638da5cb5b11610095578063d4309f4b11610064578063d4309f4b146102f8578063d57763a114610318578063e69422be14610345578063f160d36914610372578063f2fde38b1461039257600080fd5b80638da5cb5b146102855780639b1bc0c9146102a3578063a0b6041d146102c2578063a8c278a2146102e257600080fd5b806346904840116100dc57806346904840146101bd57806349eb1134146101f5578063715018a61461021557806378939fad1461022a57806379c7c8061461024a57600080fd5b806328ffc4e51461010e578063290b17ec1461012357806331166ef6146101595780633b18f69114610189575b600080fd5b61012161011c36600461157a565b6103b2565b005b34801561012f57600080fd5b5061014361013e36600461160e565b610822565b6040516101509190611677565b60405180910390f35b34801561016557600080fd5b50610179610174366004611691565b6108ce565b6040519015158152602001610150565b34801561019557600080fd5b506101a96101a4366004611691565b61092b565b6040516101509897969594939291906116ce565b3480156101c957600080fd5b506007546101dd906001600160a01b031681565b6040516001600160a01b039091168152602001610150565b34801561020157600080fd5b5061014361021036600461176d565b610ba9565b34801561022157600080fd5b50610121610be1565b34801561023657600080fd5b50610121610245366004611797565b610bf5565b34801561025657600080fd5b50610179610265366004611691565b805160208183018101805160038252928201919093012091525460ff1681565b34801561029157600080fd5b506000546001600160a01b03166101dd565b3480156102af57600080fd5b506005545b604051908152602001610150565b3480156102ce57600080fd5b506101436102dd36600461160e565b610d98565b3480156102ee57600080fd5b506102b460065481565b34801561030457600080fd5b5061012161031336600461160e565b610e8f565b34801561032457600080fd5b50610338610333366004611691565b610edd565b6040516101509190611800565b34801561035157600080fd5b506103656103603660046118c8565b611249565b60405161015091906118e3565b34801561037e57600080fd5b5061012161038d3660046118c8565b611338565b34801561039e57600080fd5b506101216103ad3660046118c8565b6113f0565b6103ba61142e565b60008351116104105760405162461bcd60e51b815260206004820152601860248201527f42617463682049442063616e6e6f7420626520656d707479000000000000000060448201526064015b60405180910390fd5b60008251116104615760405162461bcd60e51b815260206004820152601c60248201527f4d65746164617461204349442063616e6e6f7420626520656d707479000000006044820152606401610407565b60008151116104b25760405162461bcd60e51b815260206004820152601860248201527f53656c66204449442063616e6e6f7420626520656d70747900000000000000006044820152606401610407565b6003836040516104c29190611948565b9081526040519081900360200190205460ff161561052e5760405162461bcd60e51b815260206004820152602360248201527f50726f6f6620616c72656164792065786973747320666f7220746869732062616044820152620e8c6d60eb1b6064820152608401610407565b6006543410156105805760405162461bcd60e51b815260206004820152601d60248201527f496e73756666696369656e7420766572696669636174696f6e206665650000006044820152606401610407565b60408051610100810182528481526020808201859052818301849052336060830152426080830152600060a0830181905283519182018452815260c08201523460e0820152905181906002906105d7908790611948565b908152604051908190036020019020815181906105f490826119ec565b506020820151600182019061060990826119ec565b506040820151600282019061061e90826119ec565b5060608201516003820180546001600160a01b0319166001600160a01b039092169190911790556080820151600482015560a082015160058201805460ff191691151591909117905560c0820151600682019061067b90826119ec565b5060e08201518160070155905050600160038560405161069b9190611948565b9081526040805160209281900383019020805460ff1916931515939093179092553360009081526004825291822080546001810182559083529120016106e185826119ec565b50600580546001810182556000919091527f036b6384b5eca791c62761152d0c79bb0604c104a5fb6f4eb0703f3154bb3db00161071e85826119ec565b5034156107c0576007546040516000916001600160a01b03169034908381818185875af1925050503d8060008114610772576040519150601f19603f3d011682016040523d82523d6000602084013e610777565b606091505b50509050806107be5760405162461bcd60e51b8152602060048201526013602482015272119959481d1c985b9cd9995c8819985a5b1959606a1b6044820152606401610407565b505b60405133906107d0908690611948565b60405180910390207fa0ee025f6139507c8af34b6e33c100887cf3aee567174c9a83cecf1acb51fccb85854260405161080b93929190611aab565b60405180910390a35061081d60018055565b505050565b6005818154811061083257600080fd5b90600052602060002001600091509050805461084d90611964565b80601f016020809104026020016040519081016040528092919081815260200182805461087990611964565b80156108c65780601f1061089b576101008083540402835291602001916108c6565b820191906000526020600020905b8154815290600101906020018083116108a957829003601f168201915b505050505081565b60006003826040516108e09190611948565b9081526040519081900360200190205460ff166108ff57506000919050565b60028260405161090f9190611948565b9081526040519081900360200190206005015460ff1692915050565b805160208183018101805160028252928201919093012091528054819061095190611964565b80601f016020809104026020016040519081016040528092919081815260200182805461097d90611964565b80156109ca5780601f1061099f576101008083540402835291602001916109ca565b820191906000526020600020905b8154815290600101906020018083116109ad57829003601f168201915b5050505050908060010180546109df90611964565b80601f0160208091040260200160405190810160405280929190818152602001828054610a0b90611964565b8015610a585780601f10610a2d57610100808354040283529160200191610a58565b820191906000526020600020905b815481529060010190602001808311610a3b57829003601f168201915b505050505090806002018054610a6d90611964565b80601f0160208091040260200160405190810160405280929190818152602001828054610a9990611964565b8015610ae65780601f10610abb57610100808354040283529160200191610ae6565b820191906000526020600020905b815481529060010190602001808311610ac957829003601f168201915b50505060038401546004850154600586015460068701805496976001600160a01b039094169692955060ff909116935090610b2090611964565b80601f0160208091040260200160405190810160405280929190818152602001828054610b4c90611964565b8015610b995780601f10610b6e57610100808354040283529160200191610b99565b820191906000526020600020905b815481529060010190602001808311610b7c57829003601f168201915b5050505050908060070154905088565b60046020528160005260406000208181548110610bc557600080fd5b9060005260206000200160009150915050805461084d90611964565b610be9611458565b610bf36000611485565b565b610bfd611458565b600382604051610c0d9190611948565b9081526040519081900360200190205460ff16610c635760405162461bcd60e51b8152602060048201526014602482015273141c9bdbd988191bd95cc81b9bdd08195e1a5cdd60621b6044820152606401610407565b6000815111610cb45760405162461bcd60e51b815260206004820152601a60248201527f50726f6f6620686173682063616e6e6f7420626520656d7074790000000000006044820152606401610407565b6000600283604051610cc69190611948565b908152604051908190036020019020600581015490915060ff1615610d265760405162461bcd60e51b8152602060048201526016602482015275141c9bdbd988185b1c9958591e481d995c9a599a595960521b6044820152606401610407565b60058101805460ff1916600117905560068101610d4383826119ec565b5082604051610d529190611948565b60405180910390207f61b387b40189a28f803de30ebc3714390062ba6ae7a7651d766d485833ef34918342604051610d8b929190611ae1565b60405180910390a2505050565b6005546060908210610de25760405162461bcd60e51b8152602060048201526013602482015272496e646578206f7574206f6620626f756e647360681b6044820152606401610407565b60058281548110610df557610df5611b03565b906000526020600020018054610e0a90611964565b80601f0160208091040260200160405190810160405280929190818152602001828054610e3690611964565b8015610e835780601f10610e5857610100808354040283529160200191610e83565b820191906000526020600020905b815481529060010190602001808311610e6657829003601f168201915b50505050509050919050565b610e97611458565b600680549082905560408051828152602081018490527f28bf830139b6fae98d6890d2860d39927b365d01c78df9ebfcb3a4a35749c2b791015b60405180910390a15050565b610f3060405180610100016040528060608152602001606081526020016060815260200160006001600160a01b031681526020016000815260200160001515815260200160608152602001600081525090565b600382604051610f409190611948565b9081526040519081900360200190205460ff16610f965760405162461bcd60e51b8152602060048201526014602482015273141c9bdbd988191bd95cc81b9bdd08195e1a5cdd60621b6044820152606401610407565b600282604051610fa69190611948565b908152602001604051809103902060405180610100016040529081600082018054610fd090611964565b80601f0160208091040260200160405190810160405280929190818152602001828054610ffc90611964565b80156110495780601f1061101e57610100808354040283529160200191611049565b820191906000526020600020905b81548152906001019060200180831161102c57829003601f168201915b5050505050815260200160018201805461106290611964565b80601f016020809104026020016040519081016040528092919081815260200182805461108e90611964565b80156110db5780601f106110b0576101008083540402835291602001916110db565b820191906000526020600020905b8154815290600101906020018083116110be57829003601f168201915b505050505081526020016002820180546110f490611964565b80601f016020809104026020016040519081016040528092919081815260200182805461112090611964565b801561116d5780601f106111425761010080835404028352916020019161116d565b820191906000526020600020905b81548152906001019060200180831161115057829003601f168201915b505050918352505060038201546001600160a01b0316602082015260048201546040820152600582015460ff16151560608201526006820180546080909201916111b690611964565b80601f01602080910402602001604051908101604052809291908181526020018280546111e290611964565b801561122f5780601f106112045761010080835404028352916020019161122f565b820191906000526020600020905b81548152906001019060200180831161121257829003601f168201915b505050505081526020016007820154815250509050919050565b6001600160a01b0381166000908152600460209081526040808320805482518185028101850190935280835260609492939192909184015b8282101561132d5783829060005260206000200180546112a090611964565b80601f01602080910402602001604051908101604052809291908181526020018280546112cc90611964565b80156113195780601f106112ee57610100808354040283529160200191611319565b820191906000526020600020905b8154815290600101906020018083116112fc57829003601f168201915b505050505081526020019060010190611281565b505050509050919050565b611340611458565b6001600160a01b0381166113965760405162461bcd60e51b815260206004820152601960248201527f496e76616c696420726563697069656e742061646472657373000000000000006044820152606401610407565b600780546001600160a01b038381166001600160a01b031983168117909355604080519190921680825260208201939093527faaebcf1bfa00580e41d966056b48521fa9f202645c86d4ddf28113e617c1b1d39101610ed1565b6113f8611458565b6001600160a01b03811661142257604051631e4fbdf760e01b815260006004820152602401610407565b61142b81611485565b50565b60026001540361145157604051633ee5aeb560e01b815260040160405180910390fd5b6002600155565b6000546001600160a01b03163314610bf35760405163118cdaa760e01b8152336004820152602401610407565b600080546001600160a01b038381166001600160a01b0319831681178455604051919092169283917f8be0079c531659141344cd1fd0a4f28419497f9722a3daafe3b4186f6b6457e09190a35050565b634e487b7160e01b600052604160045260246000fd5b600082601f8301126114fc57600080fd5b813567ffffffffffffffff811115611516576115166114d5565b604051601f8201601f19908116603f0116810167ffffffffffffffff81118282101715611545576115456114d5565b60405281815283820160200185101561155d57600080fd5b816020850160208301376000918101602001919091529392505050565b60008060006060848603121561158f57600080fd5b833567ffffffffffffffff8111156115a657600080fd5b6115b2868287016114eb565b935050602084013567ffffffffffffffff8111156115cf57600080fd5b6115db868287016114eb565b925050604084013567ffffffffffffffff8111156115f857600080fd5b611604868287016114eb565b9150509250925092565b60006020828403121561162057600080fd5b5035919050565b60005b8381101561164257818101518382015260200161162a565b50506000910152565b60008151808452611663816020860160208601611627565b601f01601f19169290920160200192915050565b60208152600061168a602083018461164b565b9392505050565b6000602082840312156116a357600080fd5b813567ffffffffffffffff8111156116ba57600080fd5b6116c6848285016114eb565b949350505050565b610100815260006116e361010083018b61164b565b82810360208401526116f5818b61164b565b90508281036040840152611709818a61164b565b6001600160a01b03891660608501526080840188905286151560a085015283810360c0850152905061173b818661164b565b9150508260e08301529998505050505050505050565b80356001600160a01b038116811461176857600080fd5b919050565b6000806040838503121561178057600080fd5b61178983611751565b946020939093013593505050565b600080604083850312156117aa57600080fd5b823567ffffffffffffffff8111156117c157600080fd5b6117cd858286016114eb565b925050602083013567ffffffffffffffff8111156117ea57600080fd5b6117f6858286016114eb565b9150509250929050565b6020815260008251610100602084015261181e61012084018261164b565b90506020840151601f1984830301604085015261183b828261164b565b9150506040840151601f19848303016060850152611859828261164b565b915050606084015161187660808501826001600160a01b03169052565b50608084015160a084015260a084015161189460c085018215159052565b5060c0840151838203601f190160e08501526118b0828261164b565b91505060e08401516101008401528091505092915050565b6000602082840312156118da57600080fd5b61168a82611751565b6000602082016020835280845180835260408501915060408160051b86010192506020860160005b8281101561193c57603f1987860301845261192785835161164b565b9450602093840193919091019060010161190b565b50929695505050505050565b6000825161195a818460208701611627565b9190910192915050565b600181811c9082168061197857607f821691505b60208210810361199857634e487b7160e01b600052602260045260246000fd5b50919050565b601f82111561081d57806000526020600020601f840160051c810160208510156119c55750805b601f840160051c820191505b818110156119e557600081556001016119d1565b5050505050565b815167ffffffffffffffff811115611a0657611a066114d5565b611a1a81611a148454611964565b8461199e565b6020601f821160018114611a4e5760008315611a365750848201515b600019600385901b1c1916600184901b1784556119e5565b600084815260208120601f198516915b82811015611a7e5787850151825560209485019460019092019101611a5e565b5084821015611a9c5786840151600019600387901b60f8161c191681555b50505050600190811b01905550565b606081526000611abe606083018661164b565b8281036020840152611ad0818661164b565b915050826040830152949350505050565b604081526000611af4604083018561164b565b90508260208301529392505050565b634e487b7160e01b600052603260045260246000fdfea2646970667358221220ad76a12f4400de5ae58a0a49d6fefe8c58da7e64e3a33718cb992d8f333426fe64736f6c634300081c0033",
  "linkReferences": {},
  "deployedLinkReferences": {}
}